:020000040800F2
:10000000700C0020450100085F1800083D10000832
:100010005D170008310C00081331000800000000D3
:100020000000000000000000000000008F24000815
:10003000350C000800000000F1180008A125000898
:100040005F0100085F0100085F0100085F01000810
:100050005F0100085F010008390C00085F0100081B
:100060004D0C0008610C0008750C00085F010008C9
:100070005F0100085F0100085F0100085F010008E0
:100080005F0100085F0100085F0100085F010008D0
:100090005F0100085F0100085F010008890C00088B
:1000A0005F0100085F0100085F0100085F010008B0
:1000B0005F010008412600085F0100085F01000899
:1000C0005F0100085F0100085F0100085F01000890
:1000D0005F010008A5290008D92A0008192C00088A
:1000E0005F0100085F0100085F0100085F01000870
:1000F0005F0100085F0100085F0100085F01000860
:100100005F0100085F0100085F0100085F0100084F
:100110005F0100085F0100085F0100085F0100083F
:100120005F0100085F0100085F0100085F0100082F
:10013000DFF80CD000F09CFC004800473D4100086F
:10014000700C00200648804706480047FEE7FEE79F
:10015000FEE7FEE7FEE7FEE7FEE7FEE7FEE7FEE777
:10016000E12500083101000840EA01039B0703D0A4
:1001700009E008C9121F08C0042AFAD203E011F8E6
:10018000013B00F8013B521EF9D27047D2B201E0A8
:1001900000F8012B491EFBD270470022F6E710B58C
:1001A00013460A4604461946FFF7F0FF204610BDE5
:1001B00030B505462A460B4612F8010B13F8014BE1
:1001C00008B1A042F8D01CB1002802D06D1CF1E7A4
:1001D000284630BD421C10F8011B0029FBD1801AB3
:1001E000704710B5002200E0521C835C8C5CA34277
:1001F00001D1002BF8D1D8B2E1B2401A10BD0346AC
:1002000011F8012B00F8012B002AF9D1184670478C
:1002100070B5064603F068FA046805460A22002114
:10022000304600F0B9FA2C6070BDF0B480EA0102EB
:10023000D40F4200B2EB410F02D2024608461146EB
:100240004A0042D0C30DDDB2C1F3C752AD1A202D12
:1002500035DAC1F3160141F4000204B15242C5F18E
:10026000200602FA06F12A411044B3EBD05F23D0F6
:10027000C4B1012DA0EBC35009DCF0BC4FF000422B
:1002800002EAC352DBB200F5000000F0C6BA40003B
:1002900000F1807000EBC350A0F1807040EAD17093
:1002A000490009E0490841EAC071A0EBC35000F5DC
:1002B0000000400800EBC350F0BC00F0A5BA61425A
:1002C000012202EB4101001BF6E7F0BC704781F010
:1002D0000041AAE780F00040A7E780EA010210B5DC
:1002E00002F00043400022D04A001FD0010E01EB73
:1002F0001261C0F35600C2F3560240F4000042F40B
:100300000002A0FB022000047F39140400D0401C2E
:1003100050EA124001D44000491EC2B20C0604EB60
:10032000D010401C4008802A02D003E0002010BDFD
:1003300020F00100002900DA0020184310BD30B47D
:1003400080EA010202F0004530F0004221F0004056
:1003500013D090B1C30DD40DC2F31601C0F3160033
:10036000E41A41F4000140F400027D34914201D3CB
:10037000641C00E04900002C02DA30BC0020704709
:100380004FF400000023914201D3891A034340082F
:100390004FEA4101F7D151B1914202D14FF00041F2
:1003A00005E002D24FF0010101E06FF0010103EB23
:1003B000C450284430BC00F027BA2DE9FE4F8046D7
:1003C00081EA0300C00F0C46009021F0004123F0A9
:1003D0000045B8EB0200A94105D2404621469046AF
:1003E0001C460B46024623F00040104347D0270D21
:1003F000C7F30A00C3F30A510290401A0190402843
:100400006BDAC3F3130040F4801B0098924620B1CE
:100410000023D2EB030A63EB0B0B01985946C0F1A2
:100420004002504600F097F906460D4650465946A0
:10043000019A00F09FF910EB08006141002487EA5F
:10044000115284EAE7731A4340D0009A62B3019ACA
:10045000012A4FEA075215DC001B61EB02014FF045
:10046000004202EA0752CDE90042001C41F580112A
:1004700032462B4600F00EFA03B0BDE8F08F40463E
:100480002146F9E7001B61EB0201001C41F58013D6
:1004900000185B412018A2F5001747EB030140EA62
:1004A000D570B6196D4111E06D084FEA360645EA80
:1004B000C0754FEA0752001B61EB0201001C41F5B9
:1004C000801149084FEA30000019514132462B464D
:1004D00003B0BDE8F04F00F0CEB900980122400013
:1004E0000023D0EB020263EBE073009821464FEA51
:1004F000E074B8EB000061EB0401E9E783F000432E
:100500005BE781F0004158E72DE9FE4F81EA0304E3
:1005100004F0004421F0004100944FF0000B23F060
:10052000004350EA01045ED052EA03045BD0C3F3F7
:100530000A54C1F30A552C44A4F2F3340194A0FBED
:100540000254C1F3130141F48011C3F3130343F4C4
:10055000801301FB024400FB034E840A970A44EA1D
:10056000815447EA8357A4FB076802958D0A05FB6F
:1005700007854FEA932C04FB0C542705029D4FEA94
:10058000065847EA1637B5EB08056EEB070C870EE1
:10059000920E47EA811742EA8312A7FB0201B6EBEB
:1005A0000B0164EB00042B0D43EA0C335E1844EBA3
:1005B0001C50DA465146E7FB0201C5F313044FEA2B
:1005C0000B3343EA14534FEA0432019C43EA060317
:1005D000A4F10C040294009CCDE900B400F05AF997
:1005E00003B0BDE8F08F00200146F9E79623002212
:1005F000114600F012B90EB540F2334102910021CC
:10060000CDE900110A460B4600F044F903B000BDE5
:1006100000F0004220F00040C10DC0F3160040F48D
:1006200000007F2901DA00207047962903DCC1F120
:100630009601C84001E096398840002AF4D0404233
:10064000704720F00040C10DC0F3160040F40000D8
:100650007F2901DA00207047962903DCC1F1960159
:10066000C840704796398840704700F0004230F02B
:1006700000400AD0C10D01F56071C0F3160042EAD6
:100680000151C208400711437047002001467047DE
:1006900001F0004330B421F0004150EA010206D0DD
:1006A0000A0DA2F56072C1F31301002A02DC30BC0E
:1006B00000207047440F44EAC104C100E01830BC78
:1006C00000EBC25000F0A0B830B50B460146002048
:1006D0002022012409E021FA02F59D4205D303FA04
:1006E00002F5491B04FA02F52844151EA2F1010285
:1006F000F1DC30BD2DE9F05F0546002092469B46B7
:1007000088460646814640241BE028464146474627
:10071000224600F0BFF953465A46C01A914110D301
:1007200011461846224600F016F82D1A67EB01080C
:100730004F4622460120002100F00DF817EB00097A
:100740004E41201EA4F10104DFDC484631462A4612
:100750004346BDE8F09F202A04DB203A00FA02F16C
:10076000002070479140C2F1200320FA03F319439F
:1007700090407047202A06DBCB17203A41FA02F05E
:1007800043EAE07306E041FA02F3D040C2F12002EE
:1007900091400843194670472DE9F04791460F46AE
:1007A00080460446002614F8015B2DB100F082F962
:1007B0000068405DC007F6D12B2D02D02D2D18D03A
:1007C000641E4A463946204600F078F927B1396858
:1007D000A14201D1C7F8008071054FF002040BD58A
:1007E0004042002803DD02F07FFF0460A007BDE85F
:1007F000F08746F48066E4E70028F8DA02F074FF38
:1008000004606FF00040F2E70029A8BF7047401C69
:10081000490008BF20F00100704710B4B0FA80FC16
:1008200000FA0CF050EA010404BF10BC704749B153
:10083000CCF1200421FA04F411FA0CF118BF0121C3
:1008400021430843A3EB0C01CB1D4FEA00614FEAA3
:10085000102042BF002010BC704700EBC350104472
:100860000029A4BF10BC7047401C490008BF20F0FD
:10087000010010BC704710B5141E73F1000408DAB3
:10088000401C41F1000192185B411A4301D120F054
:10089000010010BD2DE9F04D92469B4611B1B1FA11
:1008A00081F202E0B0FA80F220329046FFF753FF67
:1008B00004460F4640EA0A0041EA0B0153465A46F5
:1008C000084313D0114653EA010019D0C8F1400281
:1008D000504600F0DFF805460E465046594642465F
:1008E000FFF739FF084305D0012004E020463946D0
:1008F000BDE8F08D0020054346EAE0762C433743FF
:100900000A986305E40AA0EB08000022FD0A44EA05
:1009100047540A3002D500200146E9E701051019C5
:100920006941DDE9084500196941BDE8F04DA2E7DC
:100930002DE9F04D81EA030404F0004B21F000455D
:1009400014464FF0000A23F0004150EA050220D07F
:1009500054EA01021DD0C5F30A570246C5F313033A
:10096000C1F31300C1F30A5640F4801543F4801319
:10097000A7EB0608101BD64608F2FD3873EB0500FE
:1009800002D308F1010801E092185B41B8F1000FB1
:1009900003DA00200146BDE8F08D00204FF48011FD
:1009A000064684460EE0171B73EB050705D3121BA2
:1009B00063EB050306434CEA010C49084FEA30009B
:1009C00092185B4150EA0107EDD152EA030012D0C0
:1009D00082EA040083EA0501084305D0101BAB41FD
:1009E00006D20122002306E000224FF0004302E07D
:1009F0006FF0010253101AEB06004CEB085110EB9C
:100A00000A0041EB0B01BDE8F04DFFF734BFC1F325
:100A10000A52C1F3130140F2FF3341F480119A42AC
:100A200002DA00200146704740F233439A42A2F2B4
:100A3000334202DC524200F02DB8FFF78CBE0000BA
:100A400030B5041E71F1000404DB4FF00044404255
:100A500064EB0101141E73F1000405DB1C464FF02A
:100A60000043524263EB0403994208BF904230BDF9
:100A7000064C074D06E0E06840F0010394E80700EB
:100A800098471034AC42F6D3FFF756FB00520008EB
:100A900020520008202A04DB203A21FA02F000212B
:100AA000704721FA02F3D040C2F12002914008437E
:100AB0001946704700487047D04C00082DE9F05F98
:100AC00082460078002715468B460AF10104B94694
:100AD000302801D09DB113E014F8010B01277828CC
:100AE00003D0582801D045B10AE00DB1102D07D12F
:100AF0000027102514F8010B02E0082500E00A2564
:100B00000026B0460EE005FB080005FB06F10127B4
:100B100001EB10461FFA80F8B6F5803F00D3B946C6
:100B200014F8010B294600F018F80028EBDABBF1A5
:100B3000000F05D00FB1641E00E05446CBF8004012
:100B4000B9F1000F06D002F0CFFD02210160C81EEE
:100B5000BDE8F09F48EA0640FAE73A2800D230386C
:100B600020F02002412A01D3A2F13700884201D3AC
:100B70004FF0FF307047000008B50121042000F05D
:100B8000E9FE40F2FF30ADF8000010208DF80300C0
:100B900003208DF802006946044800F0B7F940F2DE
:100BA000FF31024800F048FA08BD0000000801408B
:100BB00010B5012000F0EEFE002000F0EBFE10BDAD
:100BC00008B50146002000900348009000980844B2
:100BD00000900098008808BD006C004008B5002215
:100BE0000092044A0092009A02440092009A116016
:100BF00008BD0000006C004008B50121082000F08D
:100C0000A9FE40F2FF30ADF8000010208DF803007F
:100C100003208DF802006946044800F077F940F29D
:100C2000FF31024800F008FA08BD0000000C014046
:100C300000BFFEE77047000010B5012002490870B0
:100C400000F02CF810BD00002100002010B500209D
:100C500002490870042000F021F810BD2C0000208B
:100C600010B5012002490870082000F017F810BDE7
:100C70002C00002010B5022002490870102000F05E
:100C80000DF810BD2C00002010B50320024908709B
:100C9000202000F003F810BD2C000020014908605E
:100CA0007047000014040140002123498279002A82
:100CB0003AD00A46126803689A430B461A600A1D26
:100CC000126803689A430B1D1A60027911440A687E
:100CD00003681A430A60184A0832126803689A4384
:100CE000154B08331A601A1D126803689A43124B99
:100CF0000C331A604279102A0ED11A1F1268036849
:100D00001A430D4B08331A601A1D126803681A4300
:100D1000094B0C331A600DE00749427911440A6807
:100D200003681A430A6005E0027911440A680368FF
:100D30009A430A60704700000004014008B5012191
:100D4000802000F007FE40F2FF30ADF800001020D8
:100D50008DF8030003208DF802006946044800F076
:100D6000D5F840F2FE31034800F066F908BD0000F6
:100D7000001C01400020014051B18200A2F1C0429C
:100D8000126842F001038200A2F1C042136009E040
:100D90008200A2F1C0421268034B1A408300A3F103
:100DA000C0431A6070470000FEFF0F00D0E9011237
:100DB0001143C268114302691143426911438269B8
:100DC0001143C2691143026A1143426A1143826AA4
:100DD0001143C26A1143026B114302689200A2F1EF
:100DE000C0421160816808290BD101688900A1F116
:100DF000C041096841F0400201688900A1F1C04189
:100E00000A60416B0968426B526841EA0211426B09
:100E1000926841EA0221426B928941EA0241426BA7
:100E2000128A41EA0251426B127D41EA0261426B31
:100E3000926911430268521C9200A2F1C0421160F3
:100E4000C16AB1F5804F1BD1816B0968826B526812
:100E500041EA0211826B926841EA0221826B128A96
:100E600041EA0251826B127D41EA0261826B926912
:100E7000114302689200A2F1C042C2F8041107E0D7
:100E80006FF0704201688900A1F1C041C1F80421EE
:100E90007047000008B50121080200F05BFD40F238
:100EA000FE30ADF8000010208DF8030003208DF80F
:100EB00002006946044800F029F840F2FE31024879
:100EC00000F0BAF808BD00000020014030B5002253
:100ED0008B071C0F0F2303FA04F20B4B8C1053F8F3
:100EE00024309343084C8D1044F8253023468C1051
:100EF00053F824308C07240F00FA04F42343024CE7
:100F00008D1044F8253030BD080001402DE9F04136
:100F1000024600250026002000230024002791F827
:100F200003C00CF00F0591F803C00CF0100CBCF1DD
:100F3000000F03D091F802C04CEA050591F800C0FB
:100F4000BCF1000F31D0146800202BE04FF0010CF1
:100F50000CFA00F3B1F800C00CEA03069E4220D15F
:100F600083004FF00F0C0CFA03F7BC4305FA03FCA7
:100F70004CEA040491F803C0BCF1280F06D14FF0ED
:100F8000010C0CFA00FCC2F814C00AE091F803C08E
:100F9000BCF1480F05D14FF0010C0CFA00FCC2F86F
:100FA00010C0401C0828D1D31460B1F800C0BCF1B7
:100FB000FF0F34DD546800202EE000F1080C4FF0E4
:100FC000010808FA0CF3B1F800C00CEA03069E42CF
:100FD00021D183004FF00F0C0CFA03F7BC4305FA44
:100FE00003FC4CEA040491F803C0BCF1280F05D1BE
:100FF00000F1080C08FA0CF8C2F8148091F803C04C
:10100000BCF1480F07D100F1080C4FF0010808FAB5
:101010000CF8C2F81080401C0828CED35460BDE8FC
:10102000F0810246002093680B400BB1012000E0E4
:1010300000207047416170470161704700BFFEE7C3
:1010400010B580210C48FFF7F5FF042003F0B8FA33
:1010500040210948FFF7F0FF042003F0B1FA4021D6
:101060000548FFF7E7FF042003F0AAFA80210248B1
:10107000FFF7E2FF10BD0000000C014008B50121A0
:10108000082000F067FCC020ADF8000003208DF8B8
:10109000020014208DF8030069460248FFF736FF6E
:1010A00008BD0000000C014010B580210A48FFF780
:1010B000C3FF042003F084FA40210748FFF7BCFF78
:1010C000042003F07DFA40210348FFF7B3FF04201A
:1010D00003F076FA10BD0000000C014070B5054623
:1010E0000024002618E040211048FFF7A3FF042049
:1010F00003F066FA40210D48FFF79EFF6006040EDC
:1011000080210A48FFF78DFF08B1601CC4B204209B
:1011100003F056FA701CC6B2082EE4DB15B9FFF7CF
:10112000C3FF01E0FFF78CFF204670BD000C0140BB
:1011300070B50446002526E004F0800020B180212F
:101140001248FFF779FF03E080211048FFF772FF94
:10115000042003F035FA40210C48FFF76DFF04200E
:1011600003F02EFA40210948FFF764FF072D03D151
:1011700080210648FFF760FF6006040E042003F09C
:101180001FFA681CC5B2082DD6DB70BD000C0140EB
:1011900010B580211348FFF74FFF40211148FFF79A
:1011A0004BFF042003F00CFA80210E48FFF739FFB3
:1011B00008B9002010BD80210A48FFF73BFF04203A
:1011C00003F0FEF980210748FFF72BFF08B100204C
:1011D000F0E740210348FFF72DFF042003F0F0F96A
:1011E0000120E7E7000C014010B580210848FFF717
:1011F00021FF40210648FFF71FFF042003F0E0F91C
:1012000080210348FFF718FF042003F0D9F910BD2F
:10121000000C014010B540211348FFF70BFF0420DC
:1012200003F0CEF980211048FFF706FF042003F0F9
:10123000C7F940210C48FFF7FFFE042003F0C0F976
:1012400080210948FFF7EDFE28B140210648FFF74D
:10125000F1FE002010BD40210348FFF7EBFE042003
:1012600003F0AEF90120F5E7000C014008B50121BB
:10127000442000F06FFB0120ADF8000028208DF81D
:10128000030003208DF8020069460848FFF73EFE80
:101290003C20ADF8000048208DF8030003208DF8B5
:1012A000020069460248FFF731FE08BD0008014010
:1012B00000180140F0B5059D00242A264FF0D847BC
:1012C0003E800612164F3E80C6B23E808618761EBD
:1012D000C6F30F263E808618761EF6B23E802B2679
:1012E0004FF0D8473E800E120D4F3E80CEB23E806A
:1012F000CE18761EC6F30F263E80CE18761EF6B2A6
:101300003E802C264FF0D8473E8000BF02E0044EBE
:101310003580641C02FB03F6A642F8D8F0BD00003D
:101320000008006C2DE9F0470646884614469946A9
:101330000027002525463DB94B4630224146304620
:1013400000F024F8BDE8F08703E00A20B5FBF0F5D3
:101350007F1C002DF9D115E00A20B4FBF0F100FB51
:10136000114000F1300A39467F1E062202FB01615E
:10137000891F88B24B465246414600F007F80A20C2
:10138000B4FBF0F4002CE7D100BFDBE72DE9F04F10
:1013900081468A4615461E46A5F120001FFA80FBAD
:1013A0000C2306225146484600F0E0F82C204FF06E
:1013B000D8410880002419E00BEB4B000D4901EBEC
:1013C000800010F8048000270CE008F0010010B144
:1013D0000948068002E00020074908804FEA6808B3
:1013E000781C87B2062FF0DB601C84B20C2CE3DB88
:1013F000BDE8F08FCC4700080008006CF0B505464A
:101400000E4614461F4613E0EA2D03DD002506F1C3
:101410000C0086B2B6F59A7F01DD00250026227801
:101420003B4631462846FFF7B1FFA81D85B2641C34
:1014300020780028E8D1F0BD00B597B002200190D7
:101440000020029005200390002004900590069053
:101450004FF0805007900620089000200990082047
:101460000A9010200B9000200C900E900F9010907E
:101470004FF480501190002012901390149001A806
:101480001590169008A8FFF791FC01210620FFF7A0
:1014900073FC17B000BD000008B50121080200F080
:1014A00029FA01214FF4F47000F054FA10208DF85D
:1014B000030003208DF802004FF40050ADF8000047
:1014C00069462248FFF722FD4FF40060ADF80000A6
:1014D00069461E48FFF71AFD03208DF80200182008
:1014E0008DF803004CF20370ADF800006946174810
:1014F000FFF70CFD4FF68070ADF800006946144808
:10150000FFF704FD1020ADF8000069460F48FFF713
:10151000FDFC2020ADF8000069460C48FFF7F6FC02
:101520004FF48050ADF8000069460A48FFF7EEFC22
:101530000120ADF8000069460648FFF7E7FC4FF4CC
:1015400000510248FFF776FD08BD0000001401407D
:10155000001801400020014010B5FFF79DFFFFF784
:101560006BFF00F0E7F800F029F810BD30B52A2431
:101570004FF0D8452C8004120F4D2C80C4B22C8023
:101580008418641EC4F30F242C808418641EE4B2F3
:101590002C802B244FF0D8452C800C12064D2C802B
:1015A000CCB22C80CC18641EC4F30F242C80CC1831
:1015B000641EE4B22C8030BD0008006C10B5112010
:1015C0004FF0D8410880782002F0A0FF3620410675
:1015D00008800020564908803A204FF0D841088002
:1015E000052053490880B2204FF0D84108800C20D4
:1015F0004F49088008800020088033200880088038
:10160000B7204FF0D8410880352049490880BB20D9
:101610004FF0D8410880322045490880C0204FF063
:10162000D84108802C2042490880C2204FF0D84180
:10163000088001203E490880C3204FF0D84108802F
:1016400010203B490880C4204FF0D841088020205A
:1016500037490880C6204FF0D84108800F20344910
:101660000880D0204FF0D8410880A420304908805D
:10167000A1200880E0204FF0D8410880D0202C49DC
:1016800008800020088002200880072008800A20A7
:1016900008802820088032200880442008804220CA
:1016A0000880062008800E2008801220088017205D
:1016B0000880E1204FF0D8410880D0201C490880E4
:1016C0000020088002200880072008800A20088067
:1016D0002820088031200880542008804720088076
:1016E0000E2008801C200880172008801B200880FE
:1016F0001E2008802A204FF0D841088000200C4985
:10170000088008800880EF2008802B204FF0D84107
:1017100008800020064908800880012008803F20BA
:10172000088029204FF0D84108802C20088010BD67
:101730000008006C10B54FF400610748FFF77AFC11
:101740001E2002F0E3FE4FF400610348FFF774FC33
:101750001E2002F0DBFE10BD0014014000BFFEE7BA
:101760000EB50121084600F0F5F802210420FFF72C
:10177000ADFB03210420FFF7A9FB04210846FFF776
:10178000A5FB00210846FFF7A1FB05210420FFF778
:101790009DFB06208DF8080002208DF8090003202B
:1017A0008DF80A0001208DF80B0002A800F058F80F
:1017B00008208DF8080002208DF809008DF80A0035
:1017C00001208DF80B0002A800F04AF809208DF8DE
:1017D000080002208DF8090001208DF80A008DF81C
:1017E0000B0002A800F03CF80A208DF80800022047
:1017F0008DF8090000208DF80A0001208DF80B00FB
:1018000002A800F02DF817208DF8080002208DF8AE
:10181000090000208DF80A0001208DF80B0002A8B5
:1018200000F01EF80120009000208DF80400082030
:101830008DF8050001208DF806006846FFF734FAA0
:101840003C20009000208DF804000C208DF805004D
:1018500001208DF806006846FFF726FA0EBD704796
:1018600070B5002100230F22C47804B3154C2468FE
:1018700004F4E064C4F5E064210AC1F10403CA4041
:10188000447804FA03F184781440214309010E4C92
:101890000678A155047804F01F050124AC400578B2
:1018A0006D11AD0005F1E025C5F8004109E00478AF
:1018B00004F01F050124AC40044D0678761145F86C
:1018C000264070BD0CED00E000E400E080E100E0A7
:1018D00002490143024A1160704700000000FA0506
:1018E0000CED00E0014908627047000000000E4264
:1018F0007047000029B1064A52690243044B5A61FD
:1019000004E0034A52698243014B5A617047000068
:101910000010024029B1064AD2690243044BDA6141
:1019200004E0034AD2698243014BDA617047000048
:101930000010024029B1064A12690243044B1A61A1
:1019400004E0034A12698243014B1A6170470000A8
:101950000010024029B1064A92690243044B9A6181
:1019600004E0034A92698243014B9A617047000088
:101970000010024029B1064AD2680243044BDA60E3
:1019800004E0034AD2688243014BDA6070470000EA
:1019900000100240014908607047000040044242C4
:1019A0000348406A40F08070014948627047000077
:1019B0000010024030B500210022002400232D4DEC
:1019C0006D6805F00C0121B1042905D0082923D147
:1019D00005E0294D056022E0274D05601FE0254DFB
:1019E0006D6805F47012234D6D6805F4803402258E
:1019F00005EB92421CB9214D554305600BE01D4D8E
:101A00006D6805F400351DB11C4D5543056002E0BD
:101A1000194D5543056002E0174D056000BF00BF3A
:101A2000144D6D6805F0F0010909154D6B5C0568F2
:101A3000DD4045600F4D6D6805F4E061090A104D09
:101A40006B5C4568DD4085600A4D6D6805F460514A
:101A5000C90A0B4D6B5C4568DD40C560054D6D687E
:101A600005F44041890B074D6B5CC568B5FBF3F588
:101A7000056130BD0010024000127A0000093D00EF
:101A8000310000204100002010B501460022002353
:101A900000204A11012A02D1094C236806E0022ADB
:101AA00002D1074C236A01E0054C636A01F01F0272
:101AB000012494401C400CB1012000E0002010BD26
:101AC0000010024000210B4A11700A4A203A82F8A5
:101AD0002010012802D0042808D103E00121054A82
:101AE000117004E00521034A117000E000BF00BF3F
:101AF0007047000020100240014908607047000054
:101B00003C0442420249096A0143014A116270479A
:101B10000010024000B589B001212420FFF71AFF10
:101B200001214804FFF7F6FE8020ADF820000320D5
:101B30008DF8220010208DF8230008A92D48FFF70A
:101B4000E5F90420ADF8200003208DF822001820CC
:101B50008DF8230008A92848FFF7D8F90820ADF828
:101B6000200004208DF8230008A92348FFF7CEF9B0
:101B7000224801F0AFF94FF4964004900020ADF8F0
:101B80001400ADF81600ADF81800ADF81C000C20DC
:101B9000ADF81A0004A9194801F046FA0020ADF882
:101BA0000800ADF80A00ADF80C00ADF80E0002A96F
:101BB000124801F071F9012240F225510F4801F05D
:101BC0000EFA01210D4801F078F94FF4A060FFF7FB
:101BD0007FFE26208DF8040003208DF805008DF887
:101BE000060001208DF8070001A8FFF739FE09B0B3
:101BF00000BD000000140140000801400044004006
:101C00000348008840F01000014908807047000038
:101C100004280040034800884FF6EF71084001494E
:101C20000880704704280040002103480188001FF5
:101C3000008841EA004070471C28004029B1064A4C
:101C400012880243044B1A8004E0034A128882433C
:101C5000014B1A8070470000002800402DE9FC4726
:101C600004460D4616461F46DDE90A890820FEF7A0
:101C7000A7FF4AF28751884237D001214FF0C05068
:101C8000FFF748FE0120FFF72DFEFEF791FF012030
:101C9000FFF718FF00BF4120FFF7F6FE0028FAD03B
:101CA0004FF48070FFF72EFF0120FFF725FF00F0B3
:101CB0001DF900F011F901210846FFF7BFFF00F000
:101CC0000BF947F6FF7000F0F7F800F005F93B4616
:101CD000324629462046CDE9008900F019F94AF23A
:101CE00087510820FEF77AFF17E001214FF0C0501E
:101CF000FFF710FE7B20FFF7C7FE18B108A001F028
:101D0000BDFC06E07A20FFF7BFFE10B10DA001F088
:101D1000B5FCFFF745FE00F0DFF8BDE8FC870000EA
:101D20000D0A0D0A20506F776572204F6E205265A4
:101D3000736574206F636375727265642E2E2E2E28
:101D4000000000000D0A0D0A2045787465726E616E
:101D50006C205265736574206F636375727265647D
:101D60002E2E2E2E0000000070B500260025002427
:101D7000FFF75AFF06464548B6FBF0F44448008892
:101D8000A0425FD042490C8040F2B2751EE0E917D4
:101D900005EB91718910A5EB810129B9642195FBAF
:101DA000F1F201FB125131B94FF4C87195FBF1F218
:101DB00001FB125131B9B4F5B77F02D3A4F5B77462
:101DC00002E006E0A4F26D14681C85B2B4F5B67F9B
:101DD000DDD800BF2F48058000252BE02D4908885D
:101DE000C11700EB91718910A0EB810139B9294924
:101DF0000988642291FBF2F302FB131141B92549D2
:101E000009884FF4C87291FBF2F302FB131131B948
:101E1000012D04D11D2C01D31D3C09E00CE01E480E
:101E2000405DA04203D81C48405D241A00E003E056
:101E3000681C85B21C2CD1D200BF681C1549887063
:101E4000601CC8701148B6FBF0F100FB11644FF440
:101E50006160B4FBF0F00F4908714FF46160B4FBAE
:101E6000F0F100FB11403C21B0FBF1F00949487151
:101E70004FF46160B4FBF0F100FB11403C21B0FB7A
:101E8000F1F201FB12000349887170BD805101001D
:101E9000620000205A000020404C000800B50246B5
:101EA000FFF7AEFE100C03490880091D0A80FFF7FA
:101EB000B1FE00BD1828004000B50246FFF7A0FEA5
:101EC000C2F3034003490880091D0A80FFF7A2FE00
:101ED00000BD00000828004000BF0348008800F053
:101EE00020000028F9D070470428004007480088E7
:101EF0004FF6F77108400549088000BF0348008885
:101F000000F008000028F9D07047000004280040C5
:101F10002DE9F05F05460F4690469946DDE90AAB8C
:101F2000002640F2B270854203DB40F63300854262
:101F300002DD0020BDE8F09F40F2B2741AE0E11724
:101F400004EB91718910A4EB810129B9642194FB00
:101F5000F1F201FB124131B94FF4C87194FBF1F277
:101F600001FB124111B92748064401E02648064406
:101F7000601C84B2AC42E2DB781EC7B2002420E0D1
:101F80002248005D40F2A321484306EBC016E91742
:101F900005EB91718910A5EB810129B9642195FBAD
:101FA000F1F201FB125131B94FF4C87195FBF1F216
:101FB00001FB125119B9012C01D115480644601CCE
:101FC00084B2BC42DCDBA8F1010040F2A32148430B
:101FD00006EBC016C9EB4910C0EB092006EB001652
:101FE000CAEB0A1006EB80065E440120FFF77AFC7C
:101FF000FFF772FF3046FFF751FFFFF76DFF01203B
:1020000098E700000085E2018033E101404C0008C0
:10201000805101002DE9F04104462046FEF7E6FA22
:1020200007460549FEF759F906460449FEF787F9C0
:1020300005462846BDE8F0810000C84200FF7F4702
:102040002DE9F04104462046FEF7D0FA80460749C4
:10205000FEF743F907460649FEF771F906460549BA
:10206000FEF735F905462846BDE8F08100002F430C
:1020700000FF7F470000344210B5642002F04FFAA1
:1020800000F004F8642002F04AFA10BD10B542F2E4
:10209000362000F063F910BD2DE9F04FADF54F7D0E
:1020A0000020CC90CD9088494FF4604000F09AF920
:1020B000B8B1854800788DF83003834840788DF8B2
:1020C0003103814880788DF832037F48C0788DF8DD
:1020D00033037D4800798DF834037B4840798DF8CF
:1020E00035039DF8323302220021CCA800F055F9C7
:1020F00005469DF8353302220321CCA800F04DF9A6
:102100000446002D7ED0002CFCD0002500249DF834
:102110003103FEF770FACDE902019DF83003FEF7B6
:102120006AFA07460022694BFEF7EEF9CDE9000195
:10213000DDE90223FEF741F98246FEF7A9FA0646D9
:102140003046FEF77EFA87B23846FFF779FF6049DE
:1021500008609DF83403FEF74EFA074688469DF85E
:102160003303FEF748FA0022584BCDE90001FEF791
:10217000CBF982463A464346FEF71FF9CDE9020104
:10218000FEF786FA81464846FEF75BFA87B2384684
:10219000FFF740FF4F4908604D480068FEF765FAB9
:1021A00007463A460B464CA001F068FA49480068D9
:1021B000FEF75BFA07463A460B464AA001F05EFA84
:1021C00043480068FEF724FA07464FF6FF733A4685
:1021D0003C215020FFF7A6F83E480068FEF718FAA9
:1021E00007464FF6FF733A46A0215020FFF79AF8B2
:1021F00040480078012855D13F480078022851DC3A
:10220000334800E059E00068FEF702FA07463A4614
:102210003A499AA801F042FA2E480068FEF7F8F908
:1022200007463A46364968A801F038FA3548027838
:10223000354936A801F032FA34480278344904A806
:1022400001F02CFA01219AA801F0E4F9012168A813
:1022500001F0E0F9012136A801F0DCF9012104A820
:1022600001F0D8F900202B4908604FF480612A481A
:10227000FDF793FF0020274908604FF4806126484E
:10228000FDF78BFF0020234908604FF4806122484E
:10229000FDF783FF4FF6FF7320A250219620FFF732
:1022A000ADF80DE04FF4784320A250219620FFF7BF
:1022B000A5F822A001F0E2F902E023A001F0DEF986
:1022C0000DF54F7DBDE8F08F5000002000007040FC
:1022D0000400002008000020CEC2B6C8A3BA2566BC
:1022E0000D0A0000CAAAB6C8A3BA256625250D0A9C
:1022F000000000002D0000202E0000206C5000087F
:10230000BC4F00082C0000200C4F000820000020CB
:10231000584E0008280000206C000020436F6E6EAD
:1023200065637465642020200000000044697363C5
:102330006F6E6E65637465640000000057696669BE
:102340002045520D0A000000526561642044485443
:102350003131204552524F52210D0A0010B504462A
:10236000FEF716FF08B9002010BD8820FEF7E0FE3A
:10237000FEF750FF18B9FEF737FF0020F4E72012F0
:10238000FEF7D6FEFEF746FFE0B2FEF7D1FEFEF7FF
:1023900041FFFEF729FF0120E6E7F0B505460C46B0
:1023A00016460027FF21224613E0A85C414008277B
:1023B0000BE001F0800020B1312080EA4100C1B281
:1023C00001E04806010E781EC7B2002FF1DC501C58
:1023D000C2B2A0199042E8DC994201D10120F0BDBF
:1023E0000020FCE770B505460C46FEF7D1FE08B9A3
:1023F000002070BD8820FEF79BFEFEF70BFF18B98A
:10240000FEF7F2FE0020F4E72812FEF791FEFEF739
:1024100001FFE8B2FEF78CFEFEF7FCFEFEF7E4FEDD
:10242000FEF7B6FE08B90020E3E78920FEF780FE3C
:10243000FEF7F0FE18B9FEF7D7FE0020D9E700201E
:10244000FEF74CFE2070FEF7FBFD0020FEF746FE77
:102450006070FEF7F5FD0020FEF740FEA070FEF76D
:10246000EFFD0020FEF73AFEE070FEF7E9FD0020E8
:10247000FEF734FE2071FEF7E3FD0020FEF72EFE8E
:102480006071FEF711FEFEF7AFFE0120B1E7704765
:1024900010B500F001F810BD0CB5002001900090BF
:1024A0003348006840F480303149086000BF30484C
:1024B000006800F4003000900198401C01900098E2
:1024C00018B90198B0F5A06FF1D12948006800F45F
:1024D000003010B10120009001E000200090009831
:1024E000012843D12348006840F0100021490860CA
:1024F0000846006820F0030008600846006840F0C5
:10250000020008601A484068194948600846406857
:1025100048600846406840F480604860084640686B
:1025200020F47C1048600846406840F4E810486099
:102530000846006840F08070086000BF0C480068E2
:1025400000F000700028F9D00948406820F003002E
:10255000074948600846406840F00200486000BFF4
:102560000348406800F00C000828F9D10CBD0000B9
:102570000010024000200240042808D14FF0E02162
:10258000096941F004014FF0E022116107E04FF0CA
:10259000E021096921F004014FF0E0221161704748
:1025A0007047000010B504466FF00400FFF7E4FF29
:1025B000E11704EB5171C1F3C701074A11701046CE
:1025C000007800EB4001C1EBC0104FF6FF7101EA4B
:1025D000C0000249088010BD5600002058000020AD
:1025E00010B51348006840F0010011490860084622
:1025F0004068104908400E494860084600680E4986
:1026000008400B4908600846006820F480200860F4
:102610000846406820F4FE0048604FF41F008860C0
:10262000FFF736FF4FF000600449086010BD00005E
:10263000001002400000FFF8FFFFF6FE08ED00E08A
:1026400010B507480078401C054908700548007817
:10265000401C044908700121034800F043F810BDF4
:10266000300000202F000020000400401FB5012191
:102670000220FFF74FF91A4800F044F80020ADF8A7
:102680000A00ADF8060042F20F70ADF8080041F6FE
:102690001F40ADF8040001A9114800F031F90121F3
:1026A0000F4800F01FF8012211460D4800F01EF9F6
:1026B00001210B4800F019F84FF4A060FFF708F96A
:1026C0001D208DF8000000208DF8010002208DF8FB
:1026D000020001208DF803006846FFF7C1F81FBD16
:1026E00000040040CA430282704721B1028842F0D0
:1026F0000102028004E002884FF6FE731A40028055
:102700007047000010B504466848844208D1012192
:10271000C014FFF72FF90021E014FFF72BF9C4E0F4
:10272000B4F1804F08D101210846FFF703F90021D9
:102730000120FFF7FFF8B8E05D48844208D101218D
:102740000220FFF7F7F800210220FFF7F3F8ACE0D2
:102750005848844208D101210420FFF7EBF80021FA
:102760000420FFF7E7F8A0E05348844208D1012194
:102770000820FFF7DFF800210820FFF7DBF894E0DE
:102780004E48844208D101211020FFF7D3F80021E0
:102790001020FFF7CFF888E04948844208D1012192
:1027A0002020FFF7C7F800212020FFF7C3F87CE0C6
:1027B0004448844208D101214014FFF7DBF800218E
:1027C0006014FFF7D7F870E03F48844209D1012137
:1027D000C804FFF7CFF800214FF40020FFF7CAF834
:1027E00063E03A48844209D101210805FFF7C2F8A5
:1027F00000214FF48010FFF7BDF856E034488442C2
:1028000009D101214805FFF7B5F800214FF4001068
:10281000FFF7B0F849E02F48844208D10121402059
:10282000FFF788F800214020FFF784F83DE02A48B0
:10283000844208D101218020FFF77CF8002180200C
:10284000FFF778F831E02548844208D1012180154E
:10285000FFF770F80021A015FFF76CF825E020487D
:10286000844209D101210804FFF784F800214FF4C4
:102870008030FFF77FF818E01A48844209D101211F
:102880004804FFF777F800214FF40030FFF772F8A3
:102890000BE01548844208D101218804FFF76AF84B
:1028A00000214FF48020FFF765F810BD002C014097
:1028B0000004004000080040000C004000100040F0
:1028C0000014004000340140004C01400050014021
:1028D0000054014000180040001C0040002000404F
:1028E0000040014000440140004801401AB1838982
:1028F0000B43838102E083898B438381704700000F
:10290000002202881D4B98420ED01D4B98420BD0DE
:10291000B0F1804F08D01B4B984205D01A4B98421B
:1029200002D01A4B984204D14FF68F731A404B884D
:102930001A43174B984207D0164B984204D04FF6D3
:10294000FF431A40CB881A4302808B8883850B880B
:1029500003850A4B98420BD0094B984208D00E4B86
:10296000984205D00D4B984202D00D4B984201D1B0
:102970000B7A03860123838270470000002C0140FC
:10298000003401400004004000080040000C0040FA
:10299000001000400014004000400140004401408D
:1029A0000048014010B540F225511B4800F0EDFAF7
:1029B00068B3194800F0A4FBC4B2052C1AD2DFE8B2
:1029C00004F003070B0F130000201449087011E0F6
:1029D0000120124908700DE002201049087009E03A
:1029E00003200E49087005E001200D4908700D49CB
:1029F000087000BF00BF00BF4021074800F0B8FAD0
:102A00000128F9D12146044800F07FFB00BF402196
:102A1000014800F029FA10BD003801402C000020C8
:102A2000220000202000002010B586B004460121BD
:102A30000420FEF78FFF01218803FEF78BFF4FF480
:102A40000070ADF8140003208DF8160018208DF8E2
:102A5000170005A91E48FEF759FA4FF48060ADF83B
:102A6000140004208DF8170005A91948FEF74EFA46
:102A700001940020ADF80800ADF80A00ADF80C0094
:102A8000ADF810000C20ADF80E0001A9114800F0BF
:102A9000CBFA01210F4800F010FA40210D4800F058
:102AA000E3F9012240F225510A4800F098FA252066
:102AB0008DF8000003208DF801008DF80200012040
:102AC0008DF803006846FEF7CBFE06B010BD00008F
:102AD000000801400038014010B540F22551174868
:102AE00000F053FA20B3154800F00AFBC4B2A4F179
:102AF000300005281AD2DFE800F003070B0F13009F
:102B000000200F49087011E001200D4908700DE008
:102B100002200B49087009E003200949087005E00C
:102B20000120084908700849087000BF00BF00BFB5
:102B300040F22551014800F0A0F910BD00440040CA
:102B40002C000020220000202000002000B589B0C9
:102B500001210420FEF7FEFE01214804FEF7DAFE03
:102B60000420ADF8200003208DF8220018208DF8F5
:102B7000230008A92648FEF7C9F90820ADF820006F
:102B800004208DF8230008A92148FEF7BFF9214849
:102B900000F0A0F94FF4165004900020ADF8140096
:102BA000ADF81600ADF81800ADF81C000C20ADF81B
:102BB0001A0004A9174800F037FA0020ADF8080001
:102BC000ADF80A00ADF80C00ADF80E0002A91148EE
:102BD00000F062F9012240F225510E4800F0FFF9A1
:102BE00001210C4800F069F94FF4A060FEF770FE77
:102BF00026208DF8040003208DF805008DF80600CE
:102C000001208DF8070001A8FEF72AFE09B000BDDB
:102C100000080140004400402DE9F041D6B040F2E8
:102C20002551464800F0B1F900287CD0434800F017
:102C300067FAC6B2424843490968465441480068A9
:102C4000401C4049086008460068B0F5806F0ADB08
:102C50003DA000F013FD00203A4908604FF4806168
:102C60003748FDF79AFA37480068CC2863DB3BA168
:102C70003348FDF79DFA05463BA13148FDF798FA28
:102C800007463BA12E48FDF793FA80463AA000F094
:102C9000F5FC002D4ED0002F4CD0B8F1000F49D0DC
:102CA000B879559029463CA000F0E8FC002405E0E6
:102CB00005F10B00005D4BA90855641C232CF7DDC2
:102CC0009DF84F1135A000F0D9FC4BA921A8FDF7C4
:102CD00096FA21A937A000F0D1FC4BAA3A492BA8BB
:102CE00000F0DCFC2BA92CA000F0C8FC01212BA8D3
:102CF00000F090FC322001F089F921AA334901A8A3
:102D000000F0CCFC01A924A000F0B8FC022101A82D
:102D100000F080FC55A8FDF77BFA2D4908700020D3
:102D20000849086000E006E04FF480610448FDF7C0
:102D300034FA00BF00BF56B0BDE8F0810048004043
:102D40006C000020280000207769666920726563A6
:102D500065697665206572726F72000072657175C3
:102D60006573745F69640000746573742200000009
:102D70007D2C22736572000052656365697665205B
:102D800072657175657374207375636365737366BB
:102D9000756C6C790A0000002573000063616C6C2F
:102DA0006261636B3A2025632020202020202020B0
:102DB00020202000726571756573745F69643A251F
:102DC0007320202020200000905100081C51000892
:102DD0002C00002000B587B001218804FEF79AFD81
:102DE000204800F077F84FF4E13003900020ADF870
:102DF0001000ADF81200ADF81400ADF818000C206A
:102E0000ADF8160003A9174800F00EF90020ADF840
:102E10000400ADF80600ADF80800ADF80A0001A9FD
:102E2000104800F039F8012240F225510D4800F019
:102E3000D6F801210B4800F040F84FF4A060FEF7EF
:102E400047FD27208DF8000002208DF801000320A7
:102E50008DF8020001208DF803006846FEF700FDA2
:102E600007B000BD0048004001F40072B2F5007FD9
:102E700000D100BFCA430280704710B50022002372
:102E800040F66A14A14200D100BF0A120124944006
:102E9000A3B2DC43048010BD10B502460020108AA6
:102EA0004FF2FF0318400B884C8823438C88234340
:102EB000CC8823431843108210BD21B1828942F48B
:102EC0000052828104E082894DF6FF731A408281AC
:102ED0007047000010B504462048844209D1012102
:102EE0008803FEF747FD00214FF48040FEF742FDC6
:102EF00032E01B48844209D101214804FEF71AFD43
:102F000000214FF40030FEF715FD25E015488442FE
:102F100009D101218804FEF70DFD00214FF4802026
:102F2000FEF708FD18E01048844209D10121C804C9
:102F3000FEF700FD00214FF40020FEF7FBFC0BE044
:102F40000A48844208D101210805FEF7F3FC00215C
:102F50004FF48010FEF7EEFC10BD00000038014079
:102F60000044004000480040004C00400050004039
:102F700002460020B1F5007F00D100BF13880B404E
:102F80000BB1012000E00020704770B5024600241C
:102F900000230025002040F66A16B14200D100BF90
:102FA000C1F3421501F01F03012606FA03F3012DB8
:102FB00002D19689334006E0022D02D1168A3340B1
:102FC00001E0968A33400C12012606FA04F41688B2
:102FD000344013B10CB1012000E0002070BDF0B509
:102FE0000346002400260025002040F66A17B94257
:102FF00000D100BF1846C1F3421401F01F0601279B
:1030000007FA06F5012C01D10C3004E0022C01D1A5
:10301000103000E014301AB107682F43076002E057
:103020000768AF430760F0BD2DE9F04786B005465D
:103030000E460024A24600BFA1460027B08900B179
:1030400000BF2F462C8A4CF6FF700440F0880443E2
:103050002C82AC894EF6F3100440B08831890843C5
:10306000718908430443AC81AC8A4FF6FF400440A9
:10307000B0890443AC8201A8FEF79CFC1F4887423C
:1030800002D1DDF810A001E0DDF80CA0A88900F461
:10309000004040B10AEBCA0000EB0A103168490059
:1030A000B0FBF1F807E00AEBCA0000EB0A10316848
:1030B0008900B0FBF1F86420B8FBF0F004012009AE
:1030C000642101FB1089A88900F4004040B132203E
:1030D00000EBC900B0FBF1F000F00700044308E08A
:1030E000322000EB09106421B0FBF1F000F00F007A
:1030F00004432C8106B0BDE8F08700000038014091
:1031000001468888C0F308007047C1F30802828036
:10311000704700BFFEE7000070B58EB0054626A0E0
:1031200001F026FB0CE0642000F070FF25A126488A
:10313000FDF73EF800B108E0294624A000F09EFA11
:10314000281EA5F101018DB2EDD100BF1CA000F039
:1031500095FA002D05DC00201D49087001200EB0F5
:1031600070BD1CA11848FDF723F80446F4B119A15D
:10317000601CFDF71DF806469EB1301B421E611C07
:1031800001A8FCF7F1FF14A101A8FDF72AF810B976
:1031900000200F49087001A911A000F06FFA00206B
:1031A000DDE700200A4908700220D8E7002008491E
:1031B00008700320D3E7000041542B434946535283
:1031C0000D0A00004F4B00006C0000202564200019
:1031D0002D00002022000000302E302E302E300036
:1031E0004553503832363620495020616464726548
:1031F0007373A3BA25730D0A0000000010B544A034
:1032000000F03CFA322148A000F004FA20B149A0B5
:1032100000F034FA022010BD51A000F02FFA57A0A0
:1032200000F02CFA32215FA000F0F4F920B161A087
:1032300000F024FA0320EEE76DA000F01FFA6FA063
:1032400000F01CFA0F2000F07DF920B175A000F00D
:1032500015FA0420DFE766A000F010FA7EA000F067
:103260000DFA1920FFF758FF20B183A000F006FAED
:103270000A20D0E78CA000F001FA8DA000F0FEF942
:103280003221934800F0C6F920B192A000F0F6F97F
:103290000B20C0E784A000F0F1F990A000F0EEF957
:1032A0003221944800F0B6F920B18AA000F0E6F986
:1032B0000C20B0E77CA000F0E1F98FA000F0DEF96F
:1032C0003221954800F0A6F920B182A000F0D6F98D
:1032D0000D20A0E774A000F0D1F990A000F0CEF985
:1032E0003221954800F096F920B17AA000F0C6F995
:1032F0000E2090E76CA000F0C1F900208F49086013
:103300004FF480618E48FCF748FF002083E70000FF
:10331000526561647920746F207365742053544141
:10332000206D6F64650D0A0041542B43574D4F4487
:10333000453D31004661696C656420746F2073659A
:103340007420535441206D6F64652C207265616454
:103350007920746F20726573746172740D0A0000B5
:10336000526573657420535441206D6F64652073FA
:1033700075636365656465640D0A00005265616488
:103380007920746F2063616E63656C206175746F62
:103390006D6174696320636F6E6E656374696F6ECF
:1033A0000D0A000041542B43574155544F434F4E93
:1033B0004E3D30004661696C656420746F20636126
:1033C0006E63656C206175746F6D617469632063F1
:1033D0006F6E6E656374696F6E2C207265616479BF
:1033E00020746F20726573746172740D0A0000009E
:1033F0007375636365656465640D0A00507265707A
:103400006172696E6720746F20636F6E6E6563749E
:1034100020746F2074686520726F757465720D0A70
:10342000000000004661696C656420746F20636F62
:103430006E6E6563742074686520726F7574657252
:103440002C20726561647920746F207265737461D9
:1034500072740D0A00000000507265706172696E2E
:103460006720746F2067657420495020616464721E
:103470006573730D0A0000004661696C6564207411
:103480006F206F627461696E2049502061646472BC
:103490006573732C20726561647920746F20726586
:1034A00073746172740D0A006F6B0D0A00000000E6
:1034B000526561647920746F20736574207573653B
:1034C0007220616E64207365637265740D0A00007A
:1034D000D44C000866616C73650D0A005265616426
:1034E0007920746F2073657420636C69656E74490C
:1034F000440D0A00644D0008526561647920746FC0
:10350000207365742061647265737320616E64203A
:10351000636F6D0D0A0000000C4E00085265616477
:103520007920746F207365742073756220746F70D6
:1035300069630D0A00000000B04D0008280000205B
:103540006C00002010B504460020194908604FF4B3
:1035500080611848FCF721FE17A21AA11AA001F0F9
:1035600007F90DE04FF47A7000F050FD1CA11148EE
:10357000FCF71EFE00B107E021461EA000F07EF819
:10358000201EA4F10104EDD100BF1BA000F076F8CD
:10359000002C07DC19A000F071F800201C4908700D
:1035A000012010BD01201A4908700020F9E7000031
:1035B000280000206C0000203233333333333333A0
:1035C000000000006464000041542B43574A4150FE
:1035D0003D222573222C222573220D0A00000000B3
:1035E0005749464920474F542049500D0A0D0A4F6C
:1035F0004B000000256420000D0A0000636F6E6E12
:10360000656374696F6E206572726F7200000000EE
:103610002D00002070B505460C46002011490860B9
:103620004FF480611048FCF7B8FD29460FA001F067
:103630009FF808E0642000F0E9FC0EA10A48FCF7BE
:10364000B7FD00B103E0201EA4F10104F2D100BFD8
:1036500009A000F013F8002C01DC012070BD00204F
:10366000FCE70000280000206C00002025730D0AF4
:10367000000000004F4B00000D0A00000FB4054B86
:1036800010B503A9044A029800F004F910BC5DF8D3
:1036900014FB0000C1400008640000200FB4084B78
:1036A00010B504A902AA039800F0F4F8044602A990
:1036B000002000F086FC204610BC5DF814FB0000E2
:1036C000C33F000837B514460846064B6A462146F4
:1036D00000F0E0F804466946002000F072FC204645
:1036E0003EBD0000C33F000800487047680000204E
:1036F00002E008C8121F08C1002AFAD170477047BB
:10370000002001E001C1121F002AFBD17047000018
:103710002DE9FF5F82B00021DDE90430020DDDF804
:1037200040B0034318D044F61050A2F2FF32424397
:103730001514119801281FD0A5EB0B00401C5FEA5F
:10374000000A4FF000064E4FDFF83891B046504661
:1037500015D5CAF1000413E0119801244AA30128E9
:1037600001D16FEA0B010298119AC0E90031C0E95A
:10377000024206B0BDE8F09FCBF10000DFE704464F
:103780000021404A491842EB0450CDE9001012E0F4
:10379000E00707D032463B4640464946FCF7B4FEB8
:1037A0008046894632463B4610461946FCF7ACFE39
:1037B00006460F466410002CEAD1DDE90401DDE97C
:1037C0000023BAF1000F06DAFCF79EFE42464B4694
:1037D000FCF79AFE05E0FDF7ABF842464B46FDF7D5
:1037E000A7F804460E460022284BFDF729F903D816
:1037F0004FF0FF30014607E00022254B20463146BE
:10380000FCF7DBFDFDF703F9102409E0002C0ADBCF
:103810000A220023FCF76EFF039B30321A55641E08
:1038200050EA0102F2D1641C039AC4F1110314445A
:10383000119A012A03D0012208430DD10AE008435E
:1038400004D000204FF0110B119072E7A3EB0B0591
:103850006D1E0DE05B4504DD4FF0000205F1010532
:1038600004E003DA4FF00002A5F10105002AECD0D4
:1038700002981199C0E90231C0E9004579E70000DA
:10388000000014400000F03F300000000000F04352
:103890000000E03F2DE9FF4F95B09B468946064664
:1038A00000250FE2252877D100242746F84A012178
:1038B000059400E0044316F8013F203B01FA03F0B1
:1038C0001042F7D130782A2811D06FF02F033078CA
:1038D000A0F13002092A16D8059A44F0020402EB3E
:1038E000820203EB42021044761C0590EFE759F880
:1038F000042B0592002A03DA504244F40054059048
:1039000044F00204761C30782E2816D116F8010FE8
:1039100044F004042A280DD06FF02F023078A0F173
:103920003003092B09D807EB870302EB4303C718C1
:10393000761CF3E759F8047B761C30786C280FD09E
:1039400006DC4C2817D068280DD06A2814D104E072
:10395000742810D07A280FD10DE044F400140AE046
:1039600044F4801401E044F440147278824202D19D
:1039700004F58014761C761C307866280BD013DC96
:10398000582877D009DC002875D04528F6D046287D
:10399000F4D047281AD19DE118E0632835D0642877
:1039A00079D0652812D195E1702873D008DC67289A
:1039B000F1D069286FD06E280DD06F2806D1B5E000
:1039C00073282CD0752875D0782874D05A4617994A
:1039D00090476D1C75E1C4F30250022809D00328FA
:1039E0000DD0D9F8001004280DD00D6009F104099C
:1039F00067E1D9F80010EA17C1E90052F6E7D9F8F3
:103A000000100D80F2E70D70F0E719F8041B8DF837
:103A1000001000208DF80100EA46012003E059F86B
:103A200004AB4FF0FF3061074FF0000102D40DE00E
:103A300008F101018846B9420FDA8045F8DB1AF82F
:103A400008100029F4D108E008F1010188468142FC
:103A5000FADB1AF808100029F6D105985B46A0EBAE
:103A6000080721463846179A00F094FA284400EBDC
:103A7000080507E04DE029E10DE01AF8010B5A4670
:103A800017999047B8F10108F7D25B4621463846AE
:103A9000179A13E142E00A220092C4F302524FF057
:103AA000000A022A08D059F804CB032A4FEAEC7125
:103AB0000AD00DE029E02AE009F1070121F0070210
:103AC000F2E802C1914609E00FFA8CFC4FEAEC7172
:103AD000042A03D14FFA8CFC4FEAEC71002907DA73
:103AE0000A460021DCF1000C61EB02012D2202E00C
:103AF000220504D52B228DF80420012203E0E207E1
:103B000001D02022F7E7904659E00A2102E0102276
:103B10000DE010214FF0000A00910BE010224FF051
:103B2000000A44F004040827009203E008224FF042
:103B3000000A0092C4F30252022A05D059F804CBBD
:103B40000021032A08D009E009F1070121F007024A
:103B5000F2E802C1914605E01FFA8CFC042A01D16B
:103B60000CF0FF0C4FF00008220728D5702806D073
:103B7000009B83F0100353EA0A0305D00EE04022B5
:103B80008DF80420012208E05CEA010206D0302210
:103B90008DF804208DF8050002229046009B83F0EA
:103BA000080353EA0A030AD15CEA010201D1620761
:103BB00005D530228DF804204FF001087F1E5828CB
:103BC00004D034A003900EA802900DE036A0F9E7CF
:103BD00053466046009AFCF78DFD84460398825C4C
:103BE0000298401E029002705CEA0100F0D1029837
:103BF00006A9081A00F1200A600702D524F48034CF
:103C000000E00127574502DDA7EB0A0000E0002095
:103C100000EB0A01009005984144401A0590E0032A
:103C200006D45B462146179A059800F0B3F905447F
:103C3000002706E001A85A46C05D179990476D1C01
:103C40007F1C4745F6DBE0030CD55B462146179AFF
:103C5000059800F09FF9054404E030205A46179972
:103C600090476D1C0099481E00900029F5DC08E083
:103C7000029802995A460078491C02911799904778
:103C80006D1CBAF10001AAF1010AF1DC65E1000046
:103C90000928010030313233343536373839616222
:103CA00063646566000000003031323334353637E6
:103CB00038394142434445460000000000F058F9BD
:103CC0000544761C307800287FF4ECAD19B0284606
:103CD000BDE8F08F620700D4062709F1070222F041
:103CE000070CFCE80223E14603F000485FEA080CF9
:103CF00002D00FF2702C0DE05FEA045C02D50FF2E7
:103D0000682C07E05FEAC47C02D00FF2602C01E06F
:103D1000AFF2700C4FF0FF3823F00043CDF850C0E5
:103D200065280CD006DC452809D046281DD0472838
:103D30003DD13DE0662818D067287ED138E00021CB
:103D4000112F01DB112000E0781CCDE9000106A94C
:103D50000EA8FFF7DDFCDDE90F010E9A03910021AB
:103D6000009207F1010A04914DE04FF000400097E6
:103D7000CDE9011006A90EA8FFF7CAFCDDE90F0284
:103D800003920E9B11990022DDF80CA0009304927F
:103D900011B9791C00EB010AB7EB0A0004D4C0F199
:103DA000FF3007F1010A0490AAEB0700019044E0FC
:103DB000012F00DA01270021112F01DD112000E081
:103DC0003846CDE9000106A90EA8FFF7A1FCDDE900
:103DD0000F010E9A0391002104910092BA46210727
:103DE0000CD40399514500DA8A46BAF1010F05DD7A
:103DF000009AAAF10101515C302908D0B84202DAD8
:103E000010F1040F06DA0121CDE9011015E0AAF145
:103E10000101E9E7002805DC049901440491AAEBBB
:103E2000000102E0411C514500DD8A460499401A18
:103E3000401C01904FF000400290200704D40198EC
:103E4000504501DBCDF8048000208DF84F0002982A
:103E50000DF14F07B0F1004F25D02B200E900298A6
:103E60004FF0020800280CDA404202902D200E90FC
:103E700007E00A210298FCF727FC3031029007F88E
:103E8000011DB8F10001A8F10108F2DC0298002838
:103E9000EFD1791E0E980870307800F0200040F0C5
:103EA000450007F8020D12A8C01B00F1070814987E
:103EB000007800B1012000EB0A01019801EBE071EC
:103EC00005984144401A401E0590E00306D45B4625
:103ED0002146179A059800F05DF80544149800787B
:103EE00018B15A46179990476D1CE00324D55B46DC
:103EF0002146179A059800F04DF805441CE00498F7
:103F0000002807DBDDE90301884203DD0098405CFF
:103F1000179901E0179930205A469047049805F107
:103F20000105401C04900198401E019004D12E20F0
:103F30005A46179990476D1CBAF10001AAF1010A7F
:103F4000DDDC05E017F8010B5A46179990476D1C08
:103F5000B8F10001A8F10108F4DC5B462146179A8C
:103F60000598ABE62D0000002B00000020000000AB
:103F70002DE9F041044600251E461746880404D466
:103F800005E039462020B0476D1C641EF9D528464F
:103F9000BDE8F0812DE9F041044600251E4690461B
:103FA000C80301D5302700E02027880404D505E0A8
:103FB00041463846B0476D1C641EF9D52846BDE819
:103FC000F0810A68531C0B601070704770B504468E
:103FD0000D460C48405DA04204DC08210A48FDF76C
:103FE00029F80DE00748401D405DA04204DB082190
:103FF0000548FDF721F803E008210348FDF71AF80A
:1040000070BD000016000020001C01400146114A4E
:1040100012884A434FF0E0235A6100229A611A46FF
:10402000126942F001021A6100BF4FF0E0221069EC
:1040300000F001021AB100F48032002AF5D04FF0EE
:10404000E022126922F001024FF0E0231A610022FF
:104050009A6170475800002008B501214820FDF7FB
:1040600079FC4FF48060ADF8000003208DF8020069
:1040700018208DF8030069460F48FCF747FF4FF4FE
:104080000060ADF8000004208DF8030069460A487E
:10409000FCF73CFF0120ADF8000003208DF8020082
:1040A00010208DF8030069460448FCF72FFF01211A
:1040B0000248FCF7C1FF08BD000C01400018014098
:1040C00070B504460D46E1B20548FFF71EF800BF83
:1040D00080210348FEF74CFF0028F9D0204670BD30
:1040E0000038014070B504460D461248405DA042BC
:1040F00008DC02211048FCF79DFF04210E48FCF764
:104100009BFF15E00B48401D405DA04208DB0421E9
:104110000948FCF78FFF02210748FCF78DFF07E0F5
:1041200004210548FCF786FF02210348FCF782FFC3
:1041300070BD00000C000020001C01401CB5FDF704
:104140000BFA32244FF47A7104FB01F000F0F0F91D
:1041500000BF00204FF4A073F02201460090FDF74D
:10416000A9F84FF6FF73AEA20A210F20FDF746F91A
:104170004FF6FF73B2A264210F20FDF73FF94FF60F
:10418000FF73B7A2BE210F20FDF738F94FF6FF737A
:10419000B7A250210F20FDF731F9FDF7BBFC8021BC
:1041A000B948FCF747FF4FF4A060FDF791FBFCF71F
:1041B00071FEFCF7E1FCFCF71FFDFCF7BFFD48209A
:1041C000FEF7F0F9FDF752F8FDF7CAFA4FF4964002
:1041D000FEF72AFCFCF752FFFDF74EFFFEF746FA0A
:1041E000FFF73AFFFEF7F6FDFEF7B0FC0121A74806
:1041F000FCF720FF8021A648FCF71CFF32203B2162
:1042000017231F22CDE900100C2140F2E470FDF7C6
:1042100025FD09E0FEF7F2FF9E480078401C9D490D
:104220000870C820FFF7F2FE9A480078022803DCE5
:10423000994800780028EDD0F0E04FF6FF739748DA
:104240000278DC215020FDF76DF801218F48FCF742
:10425000F1FE9248007830B1012818D002282AD007
:10426000032850D13BE040218948FCF7E3FE4FF49E
:1042700080718B48FCF7E0FE4FF480718948FCF7B1
:10428000DBFE4FF400718748FCF7D6FE3BE04FF4AD
:1042900080718348FCF7CEFE40217D48FCF7CCFEC0
:1042A0004FF480717F48FCF7C7FE4FF400717D48E2
:1042B000FCF7C2FE27E04FF480717A48FCF7BAFEA3
:1042C00040217348FCF7B8FE4FF480717448FCF746
:1042D000B3FE4FF400717348FCF7AEFE13E04FF4E9
:1042E00000717048FCF7A6FE40216948FCF7A4FE67
:1042F0004FF480716A48FCF79FFE4FF48071694863
:10430000FCF79AFE00BF00BF67480078022807DB71
:104310001920FEF701FFFDF7BFFE0020624908707B
:104320005D48007830B9614800781E2802DB0F2014
:10433000FFF708F95E480068FCF783F9C4B25748F4
:1043400001782046FFF7CEFE5A480068FCF779F95D
:10435000C4B2524801782046FFF738FE564800782C
:1043600001280AD155480078012806D100F0AEF89E
:10437000002051490870514908704F48007830B901
:104380004E480078012802D100204C4908704C4862
:104390000078012842D100204949087000F096F8C1
:1043A00042F21070FFF732FEFDF7DEFC454840791F
:1043B0000A303C2190FBF1F201FB120042490860F7
:1043C0004FF6FF730422DC215020FCF7ABFF1EE008
:1043D000FDF7CAFCFDF760FE35480068FCF731F9CF
:1043E000C4B204212046FFF77DFE32480068FCF786
:1043F00028F9C4B204212046FFF7E8FD40F6C410B6
:10440000FFF704FE2E480078012800D105E02D4872
:1044100040792D4909688842DAD100BF0DE70000D4
:104420007265616C2D74696D652074656D7065725F
:1044300061747572652F43656C736975733A00001A
:104440007265616C2D74696D652068756D6964694C
:1044500074792F53617475726174696F6E3A0000DC
:104460007265616C2D74696D65206D6F64653A00CD
:104470007265616C2D74696D65207769666920735A
:10448000746174653A00000000140140001C014092
:10449000002001402E0000202D0000202C000020D4
:1044A00000080140000C01402F00002030000020D7
:1044B000040000200800002020000020210000202F
:1044C000220000205A0000202400002010B5012105
:1044D0000D48FCF7B1FD02210B48FCF7ABFD0421B0
:1044E0000948FCF7A7FD08210748FCF7A3FD0A20AF
:1044F000FFF78CFD01210448FCF79CFD4CF2503085
:10450000FFF784FD10BD0000001C014010B50446FB
:104510004FF47A7104FB01F000F09AF810BD10B569
:1045200004464FF47A7104FB01F000F0D9F810BD95
:1045300000B9704700BF00BF00BF00BF00BF00BF91
:1045400000BF00BF00BF00BF00BF00BF00BF00BF73
:1045500000BF00BF00BF00BF00BF00BF00BF00BF63
:1045600000BF00BF00BF00BF00BF00BF00BF00BF53
:1045700000BF00BF00BF00BF00BF00BF00BF00BF43
:1045800000BF00BF00BF00BF00BF00BF00BF00BF33
:1045900000BF00BF00BF00BF00BF00BF00BF00BF23
:1045A00000BF00BF00BF00BF00BF00BF00BF00BF13
:1045B00000BF01460139084600D0BCE700BFB8E79C
:1045C00000B9704700BF00BF00BF00BF00BF00BF01
:1045D00000BF00BF00BF00BF00BF00BF00BF00BFE3
:1045E00000BF00BF00BF00BF00BF00BF00BF00BFD3
:1045F00000BF00BF00BF00BF00BF00BF00BF00BFC3
:1046000000BF00BF00BF00BF00BF00BF00BF00BFB2
:1046100000BF00BF00BF00BF00BF00BF00BF00BFA2
:1046200000BF00BF00BF00BF00BF00BF00BF00BF92
:1046300000BF00BF00BF00BF00BF00BF00BF00BF82
:1046400000BF01460139084600D0BCE700BFB8E70B
:1046500000B9704700BF00BF00BF00BF00BF00BF70
:1046600000BF00BF00BF00BF00BF00BF00BF00BF52
:1046700000BF00BF00BF00BF00BF00BF00BF00BF42
:1046800000BF00BF00BF00BF00BF00BF00BF00BF32
:1046900000BF00BF00BF00BF00BF00BF00BF00BF22
:1046A00000BF00BF00BF00BF00BF00BF00BF00BF12
:1046B00000BF00BF00BF00BF00BF00BF00BF00BF02
:1046C00000BF00BF00BF00BF00BF00BF00BF00BFF2
:1046D00000BF01460139084600D0BCE700BFB8E77B
:1046E00000B9704700BF00BF00BF00BF00BF00BFE0
:1046F00000BF00BF00BF00BF00BF00BF00BF00BFC2
:1047000000BF00BF00BF00BF00BF00BF00BF00BFB1
:1047100000BF00BF00BF00BF00BF00BF00BF00BFA1
:1047200000BF00BF00BF00BF00BF00BF00BF00BF91
:1047300000BF00BF00BF00BF00BF00BF00BF00BF81
:1047400000BF00BF00BF00BF00BF00BF00BF00BF71
:1047500000BF00BF00BF00BF00BF00BF00BF00BF61
:1047600000BF01460139084600D0BCE700BFB8E7EA
:104770000FB438B505A800901248009A0499FEF7C6
:10478000A1FF002000900F48FBF724FD054600BF65
:104790000D48008800F040000028F9D000240CE00B
:1047A0000848005D0849091D088000BF06480088C8
:1047B00000F040000028F9D0641CAC42F0D338BCB3
:1047C0005DF814FB70040020004800400000000069
:1047D00000000000000000000000040404040404C1
:1047E0000004000000140A0A00000000000000009D
:1047F000000014143F140A3F0A0A000000041E15AA
:1048000005060C14150F0400000012150D0A142CD7
:104810002A1200000000040A0A1E151509360000BD
:10482000000202010000000000000000002010084B
:1048300008080808081020000002040808080808F2
:104840000804020000000004150E0E15040000000C
:1048500000000404041F0404040000000000000021
:10486000000000000002020100000000001F000024
:104870000000000000000000000000000002000036
:1048800000100808080404020202010000000E11D2
:1048900011111111110E000000000406040404049B
:1048A000040E000000000E1111080402011F000098
:1048B00000000E11100C1010110E00000000080C6A
:1048C0000A0A091E0818000000001F01010F10103D
:1048D000110E000000000E09010F1111110E000051
:1048E00000001F09080404040404000000000E1165
:1048F000110E1111110E000000000E1111111E10E9
:10490000120E00000000000004000000000400007F
:104910000000000000040000000404000020100853
:104920000402040810200000000000001F00001F07
:10493000000000000002040810201008040200001B
:1049400000000E11110804040004000000000E1104
:104950001915151D011E0000000004040C0A0A1E92
:104960001233000000000F12120E1212120F00007C
:1049700000001E1101010101110E000000000F12C4
:1049800012121212120F000000001F120A0E0A0269
:10499000121F000000001F120A0E0A020207000088
:1049A00000001C1201013911120C0000000033122A
:1049B000121E12121233000000001F04040404042B
:1049C000041F000000003E08080808080809070046
:1049D000000037120A060A0A123700000000070218
:1049E00002020202223F000000001B1B1B1B1515C8
:1049F0001515000000003B1216161A1A12170000B7
:104A000000000E1111111111110E000000000F1203
:104A1000120E02020207000000000E111111111700
:104A2000190E180000000F12120E0A1212370000A1
:104A300000001E1101060810110F000000001F15D4
:104A400004040404040E00000000331212121212B7
:104A5000120C000000003312120A0A0C04040000B9
:104A600000001515150E0A0A0A0A000000001B0AAC
:104A70000A04040A0A1B000000001B0A0A040404BA
:104A8000040E000000001F0908040402121F0000A9
:104A9000001C04040404040404041C0000020202B8
:104AA0000404080808100000000E08080808080898
:104AB00008080E0000040A000000000000000000CA
:104AC00000000000000000000000003F00040000A3
:104AD000000000000000000000000000000C121C9C
:104AE000123C000000000302020E1212120E00001F
:104AF00000000000001C1202021C00000000181040
:104B0000101C1212123C000000000000000C121ECB
:104B1000021C000000003804041E0404041E0000EF
:104B200000000000003C120C021E221C00000302C8
:104B3000020E1212123700000000040000060404E6
:104B4000040E000000000800000C08080808080710
:104B500000000302023A0A0E1237000000000704A8
:104B600004040404041F000000000000000F1515D9
:104B70001515000000000000000F1212123700008F
:104B800000000000000C1212120C000000000000D7
:104B9000000F1212120E020700000000001C121279
:104BA000121C103800000000001B06020207000063
:104BB00000000000001E020C101E00000000000497
:104BC000040E04040418000000000000001B121270
:104BD000123C0000000000000037120A0C04000024
:104BE000000000000015150E0A0A00000000000079
:104BF000001B0A040A1B0000000000000037120A14
:104C00000C04040300000000001E0804041E000041
:104C10000018080808040808080818000808080808
:104C20000808080808080808000604040408040422
:104C30000404060002251800000000000000000027
:104C40001F1C1F1E1F1E1F1F1E1F1E1F0040404037
:104C5000404040404040414141414140404040404F
:104C600040404040404040404040404040050202FB
:104C700002020202020202020202020202202020BA
:104C80002020202020202002020202020202909016
:104C90009090909010101010101010101010101014
:104CA0001010101010101010020202020202888868
:104CB0008888888808080808080808080808080874
:104CC000080808080808080802020202400000005C
:104CD0004D4C000841542B4D5154545553455243AB
:104CE00046473D302C312C224E554C4C222C22363E
:104CF0003265663630653835663236366632353579
:104D0000626239663865625F657370383236365F65
:104D10007465737430222C22353932643239376627
:104D20003564626432386665633233386266336391
:104D300063653661376137346239646237363066AD
:104D40003232306165316236343564386438396105
:104D50006462643663663132222C302C302C22227D
:104D60000000000041542B4D515454434C49454ED2
:104D70005449443D302C223632656636306538352C
:104D80006632363666323535626239663865625F5C
:104D9000657370383236365F74657374305F305FB8
:104DA000305F323032323131303131332200000065
:104DB00041542B4D5154545355423D302C22246FB5
:104DC000632F646576696365732F363265663630A6
:104DD0006538356632363666323535626239663860
:104DE00065625F657370383236365F746573743030
:104DF0002F7379732F70726F706572746965732F7A
:104E00007265706F7274222C3100000041542B4D7A
:104E1000515454434F4E4E3D302C2262323363394D
:104E200066663139662E696F742D6D717474732ED8
:104E3000636E2D6E6F7274682D342E6D7968756196
:104E4000776569636C6F75642E636F6D222C3138E2
:104E500038332C310000000041542B4D5154545034
:104E600055423D302C22246F632F6465766963655B
:104E7000732F3632656636306538356632363666BB
:104E8000323535626239663865625F657370383213
:104E900036365F74657374302F7379732F70726F49
:104EA000706572746965732F7265706F7274222CED
:104EB000227B5C2273657276696365735C223A5B60
:104EC0007B5C22736572766963655F69645C223A14
:104ED0005C224465765F646174615C225C2C5C22B8
:104EE00070726F706572746965735C223A7B5C22C4
:104EF0006F636375706965645C223A2025647D7D0B
:104F00005D7D222C302C300D0A00000041542B4DC9
:104F10005154545055423D302C22246F632F646508
:104F200076696365732F3632656636306538356667
:104F300032363666323535626239663865625F65AB
:104F40007370383236365F74657374302F737973CB
:104F50002F70726F706572746965732F7265706FF0
:104F60007274222C227B5C2273657276696365738E
:104F70005C223A5B7B5C22736572766963655F696C
:104F8000645C223A5C224465765F646174615C22F1
:104F90005C2C5C2270726F706572746965735C2240
:104FA0003A7B5C226D6F64655C223A2025647D7DCE
:104FB0005D7D222C302C300D0A00000041542B4D19
:104FC0005154545055423D302C22246F632F646558
:104FD00076696365732F36326566363065383566B7
:104FE00032363666323535626239663865625F65FB
:104FF0007370383236365F74657374302F7379731B
:105000002F70726F706572746965732F7265706F3F
:105010007274222C227B5C227365727669636573DD
:105020005C223A5B7B5C22736572766963655F69BB
:10503000645C223A5C224465765F646174615C2240
:105040005C2C5C2270726F706572746965735C228F
:105050003A7B5C2268756D695C223A2025647D7D0F
:105060005D7D222C302C300D0A00000041542B4D68
:105070005154545055423D302C22246F632F6465A7
:1050800076696365732F3632656636306538356606
:1050900032363666323535626239663865625F654A
:1050A0007370383236365F74657374302F7379736A
:1050B0002F70726F706572746965732F7265706F8F
:1050C0007274222C227B5C2273657276696365732D
:1050D0005C223A5B7B5C22736572766963655F690B
:1050E000645C223A5C224465765F646174615C2290
:1050F0005C2C5C2270726F706572746965735C22DF
:105100003A7B5C2274656D705C223A2025647D7D5B
:105110005D7D222C302C300D0A00000041542B4DB7
:105120005154545055423D302C22246F632F6465F6
:1051300076696365732F3632656636306538356655
:1051400032363666323535626239663865625F6599
:105150007370383236365F74657374302F737973B9
:105160002F636F6D6D616E64732F726573706F6EF8
:1051700073652F726571756573745F69643D25335E
:10518000362E333673222C22222C302C3000000095
:1051900041542B4D5154545355423D302C22246FD1
:1051A000632F646576696365732F363265663630C2
:1051B000653835663236366632353562623966387C
:1051C00065625F657370383236365F74657374304C
:1051D0002F7379732F636F6D6D616E64732F7265BA
:1051E00073706F6E73652F726571756573745F6927
:1051F000643D2533362E333673222C3100000000F7
:1052000020520008000000206C000000F03600086A
:105210008C5200086C000020040C000000370008CD
:10522000000000000000C8420000C8421802310817
:1052300051150229004F3B543B3B3D294A27273B50
:10524000010000002C010000000000000000000030
:105250000000000000010203040102030406070825
:105260000902040608000000000000000000000021
:10527000000000000000000000000000000000002E
:0C52800000000000000000000000000022
:0400000508000131BD
:00000001FF
